{
  "contractName": "StarNotary",
  "abi": [
    {
      "inputs": [],
      "stateMutability": "nonpayable",
      "type": "constructor"
    },
    {
      "anonymous": false,
      "inputs": [
        {
          "indexed": true,
          "internalType": "address",
          "name": "owner",
          "type": "address"
        },
        {
          "indexed": true,
          "internalType": "address",
          "name": "approved",
          "type": "address"
        },
        {
          "indexed": true,
          "internalType": "uint256",
          "name": "tokenId",
          "type": "uint256"
        }
      ],
      "name": "Approval",
      "type": "event"
    },
    {
      "anonymous": false,
      "inputs": [
        {
          "indexed": true,
          "internalType": "address",
          "name": "owner",
          "type": "address"
        },
        {
          "indexed": true,
          "internalType": "address",
          "name": "operator",
          "type": "address"
        },
        {
          "indexed": false,
          "internalType": "bool",
          "name": "approved",
          "type": "bool"
        }
      ],
      "name": "ApprovalForAll",
      "type": "event"
    },
    {
      "anonymous": false,
      "inputs": [
        {
          "indexed": true,
          "internalType": "address",
          "name": "from",
          "type": "address"
        },
        {
          "indexed": true,
          "internalType": "address",
          "name": "to",
          "type": "address"
        },
        {
          "indexed": true,
          "internalType": "uint256",
          "name": "tokenId",
          "type": "uint256"
        }
      ],
      "name": "Transfer",
      "type": "event"
    },
    {
      "inputs": [
        {
          "internalType": "address",
          "name": "to",
          "type": "address"
        },
        {
          "internalType": "uint256",
          "name": "tokenId",
          "type": "uint256"
        }
      ],
      "name": "approve",
      "outputs": [],
      "stateMutability": "nonpayable",
      "type": "function"
    },
    {
      "inputs": [
        {
          "internalType": "address",
          "name": "owner",
          "type": "address"
        }
      ],
      "name": "balanceOf",
      "outputs": [
        {
          "internalType": "uint256",
          "name": "",
          "type": "uint256"
        }
      ],
      "stateMutability": "view",
      "type": "function",
      "constant": true
    },
    {
      "inputs": [
        {
          "internalType": "uint256",
          "name": "tokenId",
          "type": "uint256"
        }
      ],
      "name": "getApproved",
      "outputs": [
        {
          "internalType": "address",
          "name": "",
          "type": "address"
        }
      ],
      "stateMutability": "view",
      "type": "function",
      "constant": true
    },
    {
      "inputs": [
        {
          "internalType": "address",
          "name": "owner",
          "type": "address"
        },
        {
          "internalType": "address",
          "name": "operator",
          "type": "address"
        }
      ],
      "name": "isApprovedForAll",
      "outputs": [
        {
          "internalType": "bool",
          "name": "",
          "type": "bool"
        }
      ],
      "stateMutability": "view",
      "type": "function",
      "constant": true
    },
    {
      "inputs": [],
      "name": "name",
      "outputs": [
        {
          "internalType": "string",
          "name": "",
          "type": "string"
        }
      ],
      "stateMutability": "view",
      "type": "function",
      "constant": true
    },
    {
      "inputs": [
        {
          "internalType": "uint256",
          "name": "tokenId",
          "type": "uint256"
        }
      ],
      "name": "ownerOf",
      "outputs": [
        {
          "internalType": "address",
          "name": "",
          "type": "address"
        }
      ],
      "stateMutability": "view",
      "type": "function",
      "constant": true
    },
    {
      "inputs": [
        {
          "internalType": "address",
          "name": "from",
          "type": "address"
        },
        {
          "internalType": "address",
          "name": "to",
          "type": "address"
        },
        {
          "internalType": "uint256",
          "name": "tokenId",
          "type": "uint256"
        }
      ],
      "name": "safeTransferFrom",
      "outputs": [],
      "stateMutability": "nonpayable",
      "type": "function"
    },
    {
      "inputs": [
        {
          "internalType": "address",
          "name": "from",
          "type": "address"
        },
        {
          "internalType": "address",
          "name": "to",
          "type": "address"
        },
        {
          "internalType": "uint256",
          "name": "tokenId",
          "type": "uint256"
        },
        {
          "internalType": "bytes",
          "name": "_data",
          "type": "bytes"
        }
      ],
      "name": "safeTransferFrom",
      "outputs": [],
      "stateMutability": "nonpayable",
      "type": "function"
    },
    {
      "inputs": [
        {
          "internalType": "address",
          "name": "operator",
          "type": "address"
        },
        {
          "internalType": "bool",
          "name": "approved",
          "type": "bool"
        }
      ],
      "name": "setApprovalForAll",
      "outputs": [],
      "stateMutability": "nonpayable",
      "type": "function"
    },
    {
      "inputs": [
        {
          "internalType": "uint256",
          "name": "",
          "type": "uint256"
        }
      ],
      "name": "starsForSale",
      "outputs": [
        {
          "internalType": "uint256",
          "name": "",
          "type": "uint256"
        }
      ],
      "stateMutability": "view",
      "type": "function",
      "constant": true
    },
    {
      "inputs": [
        {
          "internalType": "bytes4",
          "name": "interfaceId",
          "type": "bytes4"
        }
      ],
      "name": "supportsInterface",
      "outputs": [
        {
          "internalType": "bool",
          "name": "",
          "type": "bool"
        }
      ],
      "stateMutability": "view",
      "type": "function",
      "constant": true
    },
    {
      "inputs": [],
      "name": "symbol",
      "outputs": [
        {
          "internalType": "string",
          "name": "",
          "type": "string"
        }
      ],
      "stateMutability": "view",
      "type": "function",
      "constant": true
    },
    {
      "inputs": [
        {
          "internalType": "uint256",
          "name": "",
          "type": "uint256"
        }
      ],
      "name": "tokenIdToStarInfo",
      "outputs": [
        {
          "internalType": "string",
          "name": "name",
          "type": "string"
        }
      ],
      "stateMutability": "view",
      "type": "function",
      "constant": true
    },
    {
      "inputs": [
        {
          "internalType": "uint256",
          "name": "tokenId",
          "type": "uint256"
        }
      ],
      "name": "tokenURI",
      "outputs": [
        {
          "internalType": "string",
          "name": "",
          "type": "string"
        }
      ],
      "stateMutability": "view",
      "type": "function",
      "constant": true
    },
    {
      "inputs": [
        {
          "internalType": "address",
          "name": "from",
          "type": "address"
        },
        {
          "internalType": "address",
          "name": "to",
          "type": "address"
        },
        {
          "internalType": "uint256",
          "name": "tokenId",
          "type": "uint256"
        }
      ],
      "name": "transferFrom",
      "outputs": [],
      "stateMutability": "nonpayable",
      "type": "function"
    },
    {
      "inputs": [
        {
          "internalType": "string",
          "name": "_name",
          "type": "string"
        },
        {
          "internalType": "uint256",
          "name": "_tokenId",
          "type": "uint256"
        }
      ],
      "name": "createStar",
      "outputs": [],
      "stateMutability": "nonpayable",
      "type": "function"
    },
    {
      "inputs": [
        {
          "internalType": "uint256",
          "name": "_tokenId",
          "type": "uint256"
        },
        {
          "internalType": "uint256",
          "name": "_price",
          "type": "uint256"
        }
      ],
      "name": "putStarUpForSale",
      "outputs": [],
      "stateMutability": "nonpayable",
      "type": "function"
    },
    {
      "inputs": [
        {
          "internalType": "uint256",
          "name": "_tokenId",
          "type": "uint256"
        }
      ],
      "name": "buyStar",
      "outputs": [],
      "stateMutability": "payable",
      "type": "function",
      "payable": true
    },
    {
      "inputs": [
        {
          "internalType": "uint256",
          "name": "_tokenId",
          "type": "uint256"
        }
      ],
      "name": "lookUptokenIdToStarInfo",
      "outputs": [
        {
          "internalType": "string",
          "name": "",
          "type": "string"
        }
      ],
      "stateMutability": "view",
      "type": "function",
      "constant": true
    },
    {
      "inputs": [
        {
          "internalType": "uint256",
          "name": "_tokenId1",
          "type": "uint256"
        },
        {
          "internalType": "uint256",
          "name": "_tokenId2",
          "type": "uint256"
        }
      ],
      "name": "exchangeStars",
      "outputs": [],
      "stateMutability": "nonpayable",
      "type": "function"
    },
    {
      "inputs": [
        {
          "internalType": "address",
          "name": "_to1",
          "type": "address"
        },
        {
          "internalType": "uint256",
          "name": "_tokenId",
          "type": "uint256"
        }
      ],
      "name": "transferStar",
      "outputs": [],
      "stateMutability": "nonpayable",
      "type": "function"
    }
  ],
  "bytecode": "0x60806040523480156200001157600080fd5b506040518060400160405280601081526020017f5375706572205374617220546f6b656e000000000000000000000000000000008152506040518060400160405280600381526020017f5353540000000000000000000000000000000000000000000000000000000000815250816000908051906020019062000096929190620000b8565b508060019080519060200190620000af929190620000b8565b505050620001cd565b828054620000c69062000197565b90600052602060002090601f016020900481019282620000ea576000855562000136565b82601f106200010557805160ff191683800117855562000136565b8280016001018555821562000136579182015b828111156200013557825182559160200191906001019062000118565b5b50905062000145919062000149565b5090565b5b80821115620001645760008160009055506001016200014a565b5090565b7f4e487b7100000000000000000000000000000000000000000000000000000000600052602260045260246000fd5b60006002820490506001821680620001b057607f821691505b60208210811415620001c757620001c662000168565b5b50919050565b61328880620001dd6000396000f3fe60806040526004361061012a5760003560e01c806342842e0e116100ab578063a22cb4651161006f578063a22cb46514610405578063b88d4fde1461042e578063c87b56dd14610457578063d7830ccb14610494578063e7152a5c146104d1578063e985e9c5146104fa5761012a565b806342842e0e1461030e5780636352211e1461033757806370a082311461037457806395d89b41146103b15780639697c0a1146103dc5761012a565b806315e0afa5116100f257806315e0afa51461023a5780631967fd981461026357806323b872dd146102a05780632f1c34ef146102c9578063316a4361146102e55761012a565b806301ffc9a71461012f5780630564b1301461016c57806306fdde03146101a9578063081812fc146101d4578063095ea7b314610211575b600080fd5b34801561013b57600080fd5b5061015660048036038101906101519190611e40565b610537565b6040516101639190611e88565b60405180910390f35b34801561017857600080fd5b50610193600480360381019061018e9190611ed9565b610619565b6040516101a09190611f15565b60405180910390f35b3480156101b557600080fd5b506101be610631565b6040516101cb9190611fc9565b60405180910390f35b3480156101e057600080fd5b506101fb60048036038101906101f69190611ed9565b6106c3565b604051610208919061202c565b60405180910390f35b34801561021d57600080fd5b5061023860048036038101906102339190612073565b610748565b005b34801561024657600080fd5b50610261600480360381019061025c91906120b3565b610860565b005b34801561026f57600080fd5b5061028a60048036038101906102859190611ed9565b61093a565b6040516102979190611fc9565b60405180910390f35b3480156102ac57600080fd5b506102c760048036038101906102c291906120f3565b6109e0565b005b6102e360048036038101906102de9190611ed9565b610a40565b005b3480156102f157600080fd5b5061030c600480360381019061030791906120b3565b610bbd565b005b34801561031a57600080fd5b50610335600480360381019061033091906120f3565b610c4f565b005b34801561034357600080fd5b5061035e60048036038101906103599190611ed9565b610c6f565b60405161036b919061202c565b60405180910390f35b34801561038057600080fd5b5061039b60048036038101906103969190612146565b610d21565b6040516103a89190611f15565b60405180910390f35b3480156103bd57600080fd5b506103c6610dd9565b6040516103d39190611fc9565b60405180910390f35b3480156103e857600080fd5b5061040360048036038101906103fe91906122a8565b610e6b565b005b34801561041157600080fd5b5061042c60048036038101906104279190612330565b610ec1565b005b34801561043a57600080fd5b5061045560048036038101906104509190612411565b610ed7565b005b34801561046357600080fd5b5061047e60048036038101906104799190611ed9565b610f39565b60405161048b9190611fc9565b60405180910390f35b3480156104a057600080fd5b506104bb60048036038101906104b69190611ed9565b610fe0565b6040516104c89190611fc9565b60405180910390f35b3480156104dd57600080fd5b506104f860048036038101906104f39190612073565b611088565b005b34801561050657600080fd5b50610521600480360381019061051c9190612494565b611113565b60405161052e9190611e88565b60405180910390f35b60007f80ac58cd000000000000000000000000000000000000000000000000000000007bffffffffffffffffffffffffffffffffffffffffffffffffffffffff1916827bffffffffffffffffffffffffffffffffffffffffffffffffffffffff1916148061060257507f5b5e139f000000000000000000000000000000000000000000000000000000007bffffffffffffffffffffffffffffffffffffffffffffffffffffffff1916827bffffffffffffffffffffffffffffffffffffffffffffffffffffffff1916145b806106125750610611826111a7565b5b9050919050565b60076020528060005260406000206000915090505481565b60606000805461064090612503565b80601f016020809104026020016040519081016040528092919081815260200182805461066c90612503565b80156106b95780601f1061068e576101008083540402835291602001916106b9565b820191906000526020600020905b81548152906001019060200180831161069c57829003601f168201915b5050505050905090565b60006106ce82611211565b61070d576040517f08c379a0000000000000000000000000000000000000000000000000000000008152600401610704906125a7565b60405180910390fd5b6004600083815260200190815260200160002060009054906101000a900473ffffffffffffffffffffffffffffffffffffffff169050919050565b600061075382610c6f565b90508073ffffffffffffffffffffffffffffffffffffffff168373ffffffffffffffffffffffffffffffffffffffff1614156107c4576040517f08c379a00000000000000000000000000000000000000000000000000000000081526004016107bb90612639565b60405180910390fd5b8073ffffffffffffffffffffffffffffffffffffffff166107e361127d565b73ffffffffffffffffffffffffffffffffffffffff16148061081257506108118161080c61127d565b611113565b5b610851576040517f08c379a0000000000000000000000000000000000000000000000000000000008152600401610848906126cb565b60405180910390fd5b61085b8383611285565b505050565b600061086b83610c6f565b9050600061087883610c6f565b90503373ffffffffffffffffffffffffffffffffffffffff168273ffffffffffffffffffffffffffffffffffffffff1614806108df57503373ffffffffffffffffffffffffffffffffffffffff168173ffffffffffffffffffffffffffffffffffffffff16145b61091e576040517f08c379a00000000000000000000000000000000000000000000000000000000081526004016109159061275d565b60405180910390fd5b61092982828661133e565b61093481838561133e565b50505050565b600660205280600052604060002060009150905080600001805461095d90612503565b80601f016020809104026020016040519081016040528092919081815260200182805461098990612503565b80156109d65780601f106109ab576101008083540402835291602001916109d6565b820191906000526020600020905b8154815290600101906020018083116109b957829003601f168201915b5050505050905081565b6109f16109eb61127d565b8261159a565b610a30576040517f08c379a0000000000000000000000000000000000000000000000000000000008152600401610a27906127ef565b60405180910390fd5b610a3b83838361133e565b505050565b6000600760008381526020019081526020016000205411610a96576040517f08c379a0000000000000000000000000000000000000000000000000000000008152600401610a8d9061285b565b60405180910390fd5b6000600760008381526020019081526020016000205490506000610ab983610c6f565b9050813411610afd576040517f08c379a0000000000000000000000000000000000000000000000000000000008152600401610af4906128c7565b60405180910390fd5b610b0881338561133e565b6000610b1382611678565b90508073ffffffffffffffffffffffffffffffffffffffff166108fc849081150290604051600060405180830381858888f19350505050158015610b5b573d6000803e3d6000fd5b5082341115610bb7573373ffffffffffffffffffffffffffffffffffffffff166108fc8434610b8a9190612916565b9081150290604051600060405180830381858888f19350505050158015610bb5573d6000803e3d6000fd5b505b50505050565b3373ffffffffffffffffffffffffffffffffffffffff16610bdd83610c6f565b73ffffffffffffffffffffffffffffffffffffffff1614610c33576040517f08c379a0000000000000000000000000000000000000000000000000000000008152600401610c2a906129bc565b60405180910390fd5b8060076000848152602001908152602001600020819055505050565b610c6a83838360405180602001604052806000815250610ed7565b505050565b6000806002600084815260200190815260200160002060009054906101000a900473ffffffffffffffffffffffffffffffffffffffff169050600073ffffffffffffffffffffffffffffffffffffffff168173ffffffffffffffffffffffffffffffffffffffff161415610d18576040517f08c379a0000000000000000000000000000000000000000000000000000000008152600401610d0f90612a4e565b60405180910390fd5b80915050919050565b60008073ffffffffffffffffffffffffffffffffffffffff168273ffffffffffffffffffffffffffffffffffffffff161415610d92576040517f08c379a0000000000000000000000000000000000000000000000000000000008152600401610d8990612ae0565b60405180910390fd5b600360008373ffffffffffffffffffffffffffffffffffffffff1673ffffffffffffffffffffffffffffffffffffffff168152602001908152602001600020549050919050565b606060018054610de890612503565b80601f0160208091040260200160405190810160405280929190818152602001828054610e1490612503565b8015610e615780601f10610e3657610100808354040283529160200191610e61565b820191906000526020600020905b815481529060010190602001808311610e4457829003601f168201915b5050505050905090565b6000604051806020016040528084815250905080600660008481526020019081526020016000206000820151816000019080519060200190610eae929190611d31565b50905050610ebc3383611682565b505050565b610ed3610ecc61127d565b8383611850565b5050565b610ee8610ee261127d565b8361159a565b610f27576040517f08c379a0000000000000000000000000000000000000000000000000000000008152600401610f1e906127ef565b60405180910390fd5b610f33848484846119bd565b50505050565b6060610f4482611211565b610f83576040517f08c379a0000000000000000000000000000000000000000000000000000000008152600401610f7a90612b72565b60405180910390fd5b6000610f8d611a19565b90506000815111610fad5760405180602001604052806000815250610fd8565b80610fb784611a30565b604051602001610fc8929190612bce565b6040516020818303038152906040525b915050919050565b606060066000838152602001908152602001600020600001805461100390612503565b80601f016020809104026020016040519081016040528092919081815260200182805461102f90612503565b801561107c5780601f106110515761010080835404028352916020019161107c565b820191906000526020600020905b81548152906001019060200180831161105f57829003601f168201915b50505050509050919050565b600061109382610c6f565b90503373ffffffffffffffffffffffffffffffffffffffff168173ffffffffffffffffffffffffffffffffffffffff1614611103576040517f08c379a00000000000000000000000000000000000000000000000000000000081526004016110fa90612c64565b60405180910390fd5b61110e81848461133e565b505050565b6000600560008473ffffffffffffffffffffffffffffffffffffffff1673ffffffffffffffffffffffffffffffffffffffff16815260200190815260200160002060008373ffffffffffffffffffffffffffffffffffffffff1673ffffffffffffffffffffffffffffffffffffffff16815260200190815260200160002060009054906101000a900460ff16905092915050565b60007f01ffc9a7000000000000000000000000000000000000000000000000000000007bffffffffffffffffffffffffffffffffffffffffffffffffffffffff1916827bffffffffffffffffffffffffffffffffffffffffffffffffffffffff1916149050919050565b60008073ffffffffffffffffffffffffffffffffffffffff166002600084815260200190815260200160002060009054906101000a900473ffffffffffffffffffffffffffffffffffffffff1673ffffffffffffffffffffffffffffffffffffffff1614159050919050565b600033905090565b816004600083815260200190815260200160002060006101000a81548173ffffffffffffffffffffffffffffffffffffffff021916908373ffffffffffffffffffffffffffffffffffffffff160217905550808273ffffffffffffffffffffffffffffffffffffffff166112f883610c6f565b73ffffffffffffffffffffffffffffffffffffffff167f8c5be1e5ebec7d5bd14f71427d1e84f3dd0314c0f7b2291e5b200ac8c7c3b92560405160405180910390a45050565b8273ffffffffffffffffffffffffffffffffffffffff1661135e82610c6f565b73ffffffffffffffffffffffffffffffffffffffff16146113b4576040517f08c379a00000000000000000000000000000000000000000000000000000000081526004016113ab90612cf6565b60405180910390fd5b600073ffffffffffffffffffffffffffffffffffffffff168273ffffffffffffffffffffffffffffffffffffffff161415611424576040517f08c379a000000000000000000000000000000000000000000000000000000000815260040161141b90612d88565b60405180910390fd5b61142f838383611b91565b61143a600082611285565b6001600360008573ffffffffffffffffffffffffffffffffffffffff1673ffffffffffffffffffffffffffffffffffffffff168152602001908152602001600020600082825461148a9190612916565b925050819055506001600360008473ffffffffffffffffffffffffffffffffffffffff1673ffffffffffffffffffffffffffffffffffffffff16815260200190815260200160002060008282546114e19190612da8565b92505081905550816002600083815260200190815260200160002060006101000a81548173ffffffffffffffffffffffffffffffffffffffff021916908373ffffffffffffffffffffffffffffffffffffffff160217905550808273ffffffffffffffffffffffffffffffffffffffff168473ffffffffffffffffffffffffffffffffffffffff167fddf252ad1be2c89b69c2b068fc378daa952ba7f163c4a11628f55a4df523b3ef60405160405180910390a4505050565b60006115a582611211565b6115e4576040517f08c379a00000000000000000000000000000000000000000000000000000000081526004016115db90612e70565b60405180910390fd5b60006115ef83610c6f565b90508073ffffffffffffffffffffffffffffffffffffffff168473ffffffffffffffffffffffffffffffffffffffff16148061165e57508373ffffffffffffffffffffffffffffffffffffffff16611646846106c3565b73ffffffffffffffffffffffffffffffffffffffff16145b8061166f575061166e8185611113565b5b91505092915050565b6000819050919050565b600073ffffffffffffffffffffffffffffffffffffffff168273ffffffffffffffffffffffffffffffffffffffff1614156116f2576040517f08c379a00000000000000000000000000000000000000000000000000000000081526004016116e990612edc565b60405180910390fd5b6116fb81611211565b1561173b576040517f08c379a000000000000000000000000000000000000000000000000000000000815260040161173290612f48565b60405180910390fd5b61174760008383611b91565b6001600360008473ffffffffffffffffffffffffffffffffffffffff1673ffffffffffffffffffffffffffffffffffffffff16815260200190815260200160002060008282546117979190612da8565b92505081905550816002600083815260200190815260200160002060006101000a81548173ffffffffffffffffffffffffffffffffffffffff021916908373ffffffffffffffffffffffffffffffffffffffff160217905550808273ffffffffffffffffffffffffffffffffffffffff16600073ffffffffffffffffffffffffffffffffffffffff167fddf252ad1be2c89b69c2b068fc378daa952ba7f163c4a11628f55a4df523b3ef60405160405180910390a45050565b8173ffffffffffffffffffffffffffffffffffffffff168373ffffffffffffffffffffffffffffffffffffffff1614156118bf576040517f08c379a00000000000000000000000000000000000000000000000000000000081526004016118b690612fb4565b60405180910390fd5b80600560008573ffffffffffffffffffffffffffffffffffffffff1673ffffffffffffffffffffffffffffffffffffffff16815260200190815260200160002060008473ffffffffffffffffffffffffffffffffffffffff1673ffffffffffffffffffffffffffffffffffffffff16815260200190815260200160002060006101000a81548160ff0219169083151502179055508173ffffffffffffffffffffffffffffffffffffffff168373ffffffffffffffffffffffffffffffffffffffff167f17307eab39ab6107e8899845ad3d59bd9653f200f220920489ca2b5937696c31836040516119b09190611e88565b60405180910390a3505050565b6119c884848461133e565b6119d484848484611b96565b611a13576040517f08c379a0000000000000000000000000000000000000000000000000000000008152600401611a0a90613046565b60405180910390fd5b50505050565b606060405180602001604052806000815250905090565b60606000821415611a78576040518060400160405280600181526020017f30000000000000000000000000000000000000000000000000000000000000008152509050611b8c565b600082905060005b60008214611aaa578080611a9390613066565b915050600a82611aa391906130de565b9150611a80565b60008167ffffffffffffffff811115611ac657611ac561217d565b5b6040519080825280601f01601f191660200182016040528015611af85781602001600182028036833780820191505090505b5090505b60008514611b8557600182611b119190612916565b9150600a85611b20919061310f565b6030611b2c9190612da8565b60f81b818381518110611b4257611b41613140565b5b60200101907effffffffffffffffffffffffffffffffffffffffffffffffffffffffffffff1916908160001a905350600a85611b7e91906130de565b9450611afc565b8093505050505b919050565b505050565b6000611bb78473ffffffffffffffffffffffffffffffffffffffff16611d1e565b15611d11578373ffffffffffffffffffffffffffffffffffffffff1663150b7a02611be061127d565b8786866040518563ffffffff1660e01b8152600401611c0294939291906131c4565b6020604051808303816000875af1925050508015611c3e57506040513d601f19601f82011682018060405250810190611c3b9190613225565b60015b611cc1573d8060008114611c6e576040519150601f19603f3d011682016040523d82523d6000602084013e611c73565b606091505b50600081511415611cb9576040517f08c379a0000000000000000000000000000000000000000000000000000000008152600401611cb090613046565b60405180910390fd5b805181602001fd5b63150b7a0260e01b7bffffffffffffffffffffffffffffffffffffffffffffffffffffffff1916817bffffffffffffffffffffffffffffffffffffffffffffffffffffffff191614915050611d16565b600190505b949350505050565b600080823b905060008111915050919050565b828054611d3d90612503565b90600052602060002090601f016020900481019282611d5f5760008555611da6565b82601f10611d7857805160ff1916838001178555611da6565b82800160010185558215611da6579182015b82811115611da5578251825591602001919060010190611d8a565b5b509050611db39190611db7565b5090565b5b80821115611dd0576000816000905550600101611db8565b5090565b6000604051905090565b600080fd5b600080fd5b60007fffffffff0000000000000000000000000000000000000000000000000000000082169050919050565b611e1d81611de8565b8114611e2857600080fd5b50565b600081359050611e3a81611e14565b92915050565b600060208284031215611e5657611e55611dde565b5b6000611e6484828501611e2b565b91505092915050565b60008115159050919050565b611e8281611e6d565b82525050565b6000602082019050611e9d6000830184611e79565b92915050565b6000819050919050565b611eb681611ea3565b8114611ec157600080fd5b50565b600081359050611ed381611ead565b92915050565b600060208284031215611eef57611eee611dde565b5b6000611efd84828501611ec4565b91505092915050565b611f0f81611ea3565b82525050565b6000602082019050611f2a6000830184611f06565b92915050565b600081519050919050565b600082825260208201905092915050565b60005b83811015611f6a578082015181840152602081019050611f4f565b83811115611f79576000848401525b50505050565b6000601f19601f8301169050919050565b6000611f9b82611f30565b611fa58185611f3b565b9350611fb5818560208601611f4c565b611fbe81611f7f565b840191505092915050565b60006020820190508181036000830152611fe38184611f90565b905092915050565b600073ffffffffffffffffffffffffffffffffffffffff82169050919050565b600061201682611feb565b9050919050565b6120268161200b565b82525050565b6000602082019050612041600083018461201d565b92915050565b6120508161200b565b811461205b57600080fd5b50565b60008135905061206d81612047565b92915050565b6000806040838503121561208a57612089611dde565b5b60006120988582860161205e565b92505060206120a985828601611ec4565b9150509250929050565b600080604083850312156120ca576120c9611dde565b5b60006120d885828601611ec4565b92505060206120e985828601611ec4565b9150509250929050565b60008060006060848603121561210c5761210b611dde565b5b600061211a8682870161205e565b935050602061212b8682870161205e565b925050604061213c86828701611ec4565b9150509250925092565b60006020828403121561215c5761215b611dde565b5b600061216a8482850161205e565b91505092915050565b600080fd5b600080fd5b7f4e487b7100000000000000000000000000000000000000000000000000000000600052604160045260246000fd5b6121b582611f7f565b810181811067ffffffffffffffff821117156121d4576121d361217d565b5b80604052505050565b60006121e7611dd4565b90506121f382826121ac565b919050565b600067ffffffffffffffff8211156122135761221261217d565b5b61221c82611f7f565b9050602081019050919050565b82818337600083830152505050565b600061224b612246846121f8565b6121dd565b90508281526020810184848401111561226757612266612178565b5b612272848285612229565b509392505050565b600082601f83011261228f5761228e612173565b5b813561229f848260208601612238565b91505092915050565b600080604083850312156122bf576122be611dde565b5b600083013567ffffffffffffffff8111156122dd576122dc611de3565b5b6122e98582860161227a565b92505060206122fa85828601611ec4565b9150509250929050565b61230d81611e6d565b811461231857600080fd5b50565b60008135905061232a81612304565b92915050565b6000806040838503121561234757612346611dde565b5b60006123558582860161205e565b92505060206123668582860161231b565b9150509250929050565b600067ffffffffffffffff82111561238b5761238a61217d565b5b61239482611f7f565b9050602081019050919050565b60006123b46123af84612370565b6121dd565b9050828152602081018484840111156123d0576123cf612178565b5b6123db848285612229565b509392505050565b600082601f8301126123f8576123f7612173565b5b81356124088482602086016123a1565b91505092915050565b6000806000806080858703121561242b5761242a611dde565b5b60006124398782880161205e565b945050602061244a8782880161205e565b935050604061245b87828801611ec4565b925050606085013567ffffffffffffffff81111561247c5761247b611de3565b5b612488878288016123e3565b91505092959194509250565b600080604083850312156124ab576124aa611dde565b5b60006124b98582860161205e565b92505060206124ca8582860161205e565b9150509250929050565b7f4e487b7100000000000000000000000000000000000000000000000000000000600052602260045260246000fd5b6000600282049050600182168061251b57607f821691505b6020821081141561252f5761252e6124d4565b5b50919050565b7f4552433732313a20617070726f76656420717565727920666f72206e6f6e657860008201527f697374656e7420746f6b656e0000000000000000000000000000000000000000602082015250565b6000612591602c83611f3b565b915061259c82612535565b604082019050919050565b600060208201905081810360008301526125c081612584565b9050919050565b7f4552433732313a20617070726f76616c20746f2063757272656e74206f776e6560008201527f7200000000000000000000000000000000000000000000000000000000000000602082015250565b6000612623602183611f3b565b915061262e826125c7565b604082019050919050565b6000602082019050818103600083015261265281612616565b9050919050565b7f4552433732313a20617070726f76652063616c6c6572206973206e6f74206f7760008201527f6e6572206e6f7220617070726f76656420666f7220616c6c0000000000000000602082015250565b60006126b5603883611f3b565b91506126c082612659565b604082019050919050565b600060208201905081810360008301526126e4816126a8565b9050919050565b7f596f752063616e27742065786368616e676520746865205374617220796f752060008201527f646f6e2774206f776e6564000000000000000000000000000000000000000000602082015250565b6000612747602b83611f3b565b9150612752826126eb565b604082019050919050565b600060208201905081810360008301526127768161273a565b9050919050565b7f4552433732313a207472616e736665722063616c6c6572206973206e6f74206f60008201527f776e6572206e6f7220617070726f766564000000000000000000000000000000602082015250565b60006127d9603183611f3b565b91506127e48261277d565b604082019050919050565b60006020820190508181036000830152612808816127cc565b9050919050565b7f54686520537461722073686f756c6420626520757020666f722073616c650000600082015250565b6000612845601e83611f3b565b91506128508261280f565b602082019050919050565b6000602082019050818103600083015261287481612838565b9050919050565b7f596f75206e65656420746f206861766520656e6f756768204574686572000000600082015250565b60006128b1601d83611f3b565b91506128bc8261287b565b602082019050919050565b600060208201905081810360008301526128e0816128a4565b9050919050565b7f4e487b7100000000000000000000000000000000000000000000000000000000600052601160045260246000fd5b600061292182611ea3565b915061292c83611ea3565b92508282101561293f5761293e6128e7565b5b828203905092915050565b7f596f752063616e27742073616c6520746865205374617220796f7520646f6e2760008201527f74206f776e656400000000000000000000000000000000000000000000000000602082015250565b60006129a6602783611f3b565b91506129b18261294a565b604082019050919050565b600060208201905081810360008301526129d581612999565b9050919050565b7f4552433732313a206f776e657220717565727920666f72206e6f6e657869737460008201527f656e7420746f6b656e0000000000000000000000000000000000000000000000602082015250565b6000612a38602983611f3b565b9150612a43826129dc565b604082019050919050565b60006020820190508181036000830152612a6781612a2b565b9050919050565b7f4552433732313a2062616c616e636520717565727920666f7220746865207a6560008201527f726f206164647265737300000000000000000000000000000000000000000000602082015250565b6000612aca602a83611f3b565b9150612ad582612a6e565b604082019050919050565b60006020820190508181036000830152612af981612abd565b9050919050565b7f4552433732314d657461646174613a2055524920717565727920666f72206e6f60008201527f6e6578697374656e7420746f6b656e0000000000000000000000000000000000602082015250565b6000612b5c602f83611f3b565b9150612b6782612b00565b604082019050919050565b60006020820190508181036000830152612b8b81612b4f565b9050919050565b600081905092915050565b6000612ba882611f30565b612bb28185612b92565b9350612bc2818560208601611f4c565b80840191505092915050565b6000612bda8285612b9d565b9150612be68284612b9d565b91508190509392505050565b7f596f752063616e2774207472616e7366657220746865205374617220796f752060008201527f646f6e2774206f776e6564000000000000000000000000000000000000000000602082015250565b6000612c4e602b83611f3b565b9150612c5982612bf2565b604082019050919050565b60006020820190508181036000830152612c7d81612c41565b9050919050565b7f4552433732313a207472616e73666572206f6620746f6b656e2074686174206960008201527f73206e6f74206f776e0000000000000000000000000000000000000000000000602082015250565b6000612ce0602983611f3b565b9150612ceb82612c84565b604082019050919050565b60006020820190508181036000830152612d0f81612cd3565b9050919050565b7f4552433732313a207472616e7366657220746f20746865207a65726f2061646460008201527f7265737300000000000000000000000000000000000000000000000000000000602082015250565b6000612d72602483611f3b565b9150612d7d82612d16565b604082019050919050565b60006020820190508181036000830152612da181612d65565b9050919050565b6000612db382611ea3565b9150612dbe83611ea3565b9250827fffffffffffffffffffffffffffffffffffffffffffffffffffffffffffffffff03821115612df357612df26128e7565b5b828201905092915050565b7f4552433732313a206f70657261746f7220717565727920666f72206e6f6e657860008201527f697374656e7420746f6b656e0000000000000000000000000000000000000000602082015250565b6000612e5a602c83611f3b565b9150612e6582612dfe565b604082019050919050565b60006020820190508181036000830152612e8981612e4d565b9050919050565b7f4552433732313a206d696e7420746f20746865207a65726f2061646472657373600082015250565b6000612ec6602083611f3b565b9150612ed182612e90565b602082019050919050565b60006020820190508181036000830152612ef581612eb9565b9050919050565b7f4552433732313a20746f6b656e20616c7265616479206d696e74656400000000600082015250565b6000612f32601c83611f3b565b9150612f3d82612efc565b602082019050919050565b60006020820190508181036000830152612f6181612f25565b9050919050565b7f4552433732313a20617070726f766520746f2063616c6c657200000000000000600082015250565b6000612f9e601983611f3b565b9150612fa982612f68565b602082019050919050565b60006020820190508181036000830152612fcd81612f91565b9050919050565b7f4552433732313a207472616e7366657220746f206e6f6e20455243373231526560008201527f63656976657220696d706c656d656e7465720000000000000000000000000000602082015250565b6000613030603283611f3b565b915061303b82612fd4565b604082019050919050565b6000602082019050818103600083015261305f81613023565b9050919050565b600061307182611ea3565b91507fffffffffffffffffffffffffffffffffffffffffffffffffffffffffffffffff8214156130a4576130a36128e7565b5b600182019050919050565b7f4e487b7100000000000000000000000000000000000000000000000000000000600052601260045260246000fd5b60006130e982611ea3565b91506130f483611ea3565b925082613104576131036130af565b5b828204905092915050565b600061311a82611ea3565b915061312583611ea3565b925082613135576131346130af565b5b828206905092915050565b7f4e487b7100000000000000000000000000000000000000000000000000000000600052603260045260246000fd5b600081519050919050565b600082825260208201905092915050565b60006131968261316f565b6131a0818561317a565b93506131b0818560208601611f4c565b6131b981611f7f565b840191505092915050565b60006080820190506131d9600083018761201d565b6131e6602083018661201d565b6131f36040830185611f06565b8181036060830152613205818461318b565b905095945050505050565b60008151905061321f81611e14565b92915050565b60006020828403121561323b5761323a611dde565b5b600061324984828501613210565b9150509291505056fea26469706673582212200c1b46accf61e1a0acaa4201d95be8a4abd6d4d8f9fb66c53884e41465f9ba9a64736f6c634300080b0033",
  "immutableReferences": {},
  "source": "// SPDX-License-Identifier: MIT\npragma solidity >=0.4.24;\n\n//Importing openzeppelin-solidity ERC-721 implemented Standard\nimport \"../node_modules/openzeppelin-solidity/contracts/token/ERC721/ERC721.sol\";\n\n// StarNotary Contract declaration inheritance the ERC721 openzeppelin implementation\ncontract StarNotary is ERC721 {\n\n    // Star data\n    struct Star {\n        string name;\n    }\n\n    // Implement Task 1 Add a name and symbol properties\n    // name: Is a short name to your token\n    // symbol: Is a short string like 'USD' -> 'American Dollar'\n    constructor() ERC721(\"Super Star Token\", \"SST\")  {}\n    \n    // mapping the Star with the Owner Address\n    mapping(uint256 => Star) public tokenIdToStarInfo;\n    // mapping the TokenId and price\n    mapping(uint256 => uint256) public starsForSale;\n\n    \n    // Create Star using the Struct\n    function createStar(string memory _name, uint256 _tokenId) public { // Passing the name and tokenId as a parameters\n        Star memory newStar = Star(_name); // Star is an struct so we are creating a new Star\n        tokenIdToStarInfo[_tokenId] = newStar; // Creating in memory the Star -> tokenId mapping\n        _mint(msg.sender, _tokenId); // _mint assign the the star with _tokenId to the sender address (ownership)\n    }\n\n    // Putting an Star for sale (Adding the star tokenid into the mapping starsForSale, first verify that the sender is the owner)\n    function putStarUpForSale(uint256 _tokenId, uint256 _price) public {\n        require(ownerOf(_tokenId) == msg.sender, \"You can't sale the Star you don't owned\");\n        starsForSale[_tokenId] = _price;\n    }\n\n\n    // Function that allows you to convert an address into a payable address\n    function _make_payable(address x) internal pure returns (address payable) {\n        //return payable(uint160(x));\n        return payable(x);\n    }\n\n    function buyStar(uint256 _tokenId) public  payable {\n        require(starsForSale[_tokenId] > 0, \"The Star should be up for sale\");\n        uint256 starCost = starsForSale[_tokenId];\n        address ownerAddress = ownerOf(_tokenId);\n        require(msg.value > starCost, \"You need to have enough Ether\");\n        _transfer(ownerAddress, msg.sender, _tokenId); // We can't use _addTokenTo or_removeTokenFrom functions, now we have to use _transferFrom\n        address payable ownerAddressPayable = _make_payable(ownerAddress); // We need to make this conversion to be able to use transfer() function to transfer ethers\n        ownerAddressPayable.transfer(starCost);\n        if(msg.value > starCost) {\n            payable(msg.sender).transfer(msg.value - starCost);\n        }\n    }\n\n    // Implement Task 1 lookUptokenIdToStarInfo\n    function lookUptokenIdToStarInfo (uint _tokenId) public view returns (string memory) {\n        //1. You should return the Star saved in tokenIdToStarInfo mapping\n        return tokenIdToStarInfo[_tokenId].name;\n    }\n\n    // Implement Task 1 Exchange Stars function\n    function exchangeStars(uint256 _tokenId1, uint256 _tokenId2) public {\n        //1. Passing to star tokenId you will need to check if the owner of _tokenId1 or _tokenId2 is the sender\n        //2. You don't have to check for the price of the token (star)\n        //3. Get the owner of the two tokens (ownerOf(_tokenId1), ownerOf(_tokenId2)\n        //4. Use _transferFrom function to exchange the tokens.\n        address owner1Address = ownerOf(_tokenId1);\n        address owner2Address = ownerOf(_tokenId2);\n        require(owner1Address == msg.sender || owner2Address == msg.sender, \"You can't exchange the Star you don't owned\");\n        _transfer(owner1Address, owner2Address, _tokenId1);\n        _transfer(owner2Address, owner1Address, _tokenId2);        \n    }\n\n    // Implement Task 1 Transfer Stars\n    function transferStar(address _to1, uint256 _tokenId) public {\n        //1. Check if the sender is the ownerOf(_tokenId)\n        //2. Use the transferFrom(from, to, tokenId); function to transfer the Star\n        address ownerAddress = ownerOf(_tokenId); \n        require(ownerAddress == msg.sender, \"You can't transfer the Star you don't owned\");\n        _transfer(ownerAddress, _to1, _tokenId);\n    }\n\n}",
  "sourcePath": "C:\\udacity\\Blockchain\\Projects\\CryptoStar\\contracts\\StarNotary.sol",
  "compiler": {
    "name": "solc",
    "version": "0.8.11+commit.d7f03943.Emscripten.clang"
  },
  "schemaVersion": "3.4.4",
  "updatedAt": "2022-01-14T08:04:02.270Z",
  "networkType": "ethereum",
  "devdoc": {
    "kind": "dev",
    "methods": {
      "approve(address,uint256)": {
        "details": "See {IERC721-approve}."
      },
      "balanceOf(address)": {
        "details": "See {IERC721-balanceOf}."
      },
      "getApproved(uint256)": {
        "details": "See {IERC721-getApproved}."
      },
      "isApprovedForAll(address,address)": {
        "details": "See {IERC721-isApprovedForAll}."
      },
      "name()": {
        "details": "See {IERC721Metadata-name}."
      },
      "ownerOf(uint256)": {
        "details": "See {IERC721-ownerOf}."
      },
      "safeTransferFrom(address,address,uint256)": {
        "details": "See {IERC721-safeTransferFrom}."
      },
      "safeTransferFrom(address,address,uint256,bytes)": {
        "details": "See {IERC721-safeTransferFrom}."
      },
      "setApprovalForAll(address,bool)": {
        "details": "See {IERC721-setApprovalForAll}."
      },
      "supportsInterface(bytes4)": {
        "details": "See {IERC165-supportsInterface}."
      },
      "symbol()": {
        "details": "See {IERC721Metadata-symbol}."
      },
      "tokenURI(uint256)": {
        "details": "See {IERC721Metadata-tokenURI}."
      },
      "transferFrom(address,address,uint256)": {
        "details": "See {IERC721-transferFrom}."
      }
    },
    "version": 1
  },
  "userdoc": {
    "kind": "user",
    "methods": {},
    "version": 1
  }
}