{
  "contractName": "SupplyChain",
  "abi": [
    {
      "anonymous": false,
      "inputs": [
        {
          "indexed": true,
          "internalType": "address",
          "name": "account",
          "type": "address"
        }
      ],
      "name": "ConsumerAdded",
      "type": "event"
    },
    {
      "anonymous": false,
      "inputs": [
        {
          "indexed": true,
          "internalType": "address",
          "name": "account",
          "type": "address"
        }
      ],
      "name": "ConsumerRemoved",
      "type": "event"
    },
    {
      "anonymous": false,
      "inputs": [
        {
          "indexed": true,
          "internalType": "address",
          "name": "account",
          "type": "address"
        }
      ],
      "name": "DistributorAdded",
      "type": "event"
    },
    {
      "anonymous": false,
      "inputs": [
        {
          "indexed": true,
          "internalType": "address",
          "name": "account",
          "type": "address"
        }
      ],
      "name": "DistributorRemoved",
      "type": "event"
    },
    {
      "anonymous": false,
      "inputs": [
        {
          "indexed": true,
          "internalType": "address",
          "name": "account",
          "type": "address"
        }
      ],
      "name": "FarmerAdded",
      "type": "event"
    },
    {
      "anonymous": false,
      "inputs": [
        {
          "indexed": true,
          "internalType": "address",
          "name": "account",
          "type": "address"
        }
      ],
      "name": "FarmerRemoved",
      "type": "event"
    },
    {
      "anonymous": false,
      "inputs": [
        {
          "indexed": false,
          "internalType": "uint256",
          "name": "upc",
          "type": "uint256"
        }
      ],
      "name": "Harvested",
      "type": "event"
    },
    {
      "anonymous": false,
      "inputs": [
        {
          "indexed": false,
          "internalType": "uint256",
          "name": "upc",
          "type": "uint256"
        }
      ],
      "name": "OnSale",
      "type": "event"
    },
    {
      "anonymous": false,
      "inputs": [
        {
          "indexed": false,
          "internalType": "uint256",
          "name": "upc",
          "type": "uint256"
        }
      ],
      "name": "Packed",
      "type": "event"
    },
    {
      "anonymous": false,
      "inputs": [
        {
          "indexed": false,
          "internalType": "uint256",
          "name": "upc",
          "type": "uint256"
        }
      ],
      "name": "Purchased",
      "type": "event"
    },
    {
      "anonymous": false,
      "inputs": [
        {
          "indexed": false,
          "internalType": "uint256",
          "name": "upc",
          "type": "uint256"
        }
      ],
      "name": "ReceivedByDistributor",
      "type": "event"
    },
    {
      "anonymous": false,
      "inputs": [
        {
          "indexed": false,
          "internalType": "uint256",
          "name": "upc",
          "type": "uint256"
        }
      ],
      "name": "ReceivedByRetailer",
      "type": "event"
    },
    {
      "anonymous": false,
      "inputs": [
        {
          "indexed": true,
          "internalType": "address",
          "name": "account",
          "type": "address"
        }
      ],
      "name": "RetailerAdded",
      "type": "event"
    },
    {
      "anonymous": false,
      "inputs": [
        {
          "indexed": true,
          "internalType": "address",
          "name": "account",
          "type": "address"
        }
      ],
      "name": "RetailerRemoved",
      "type": "event"
    },
    {
      "anonymous": false,
      "inputs": [
        {
          "indexed": false,
          "internalType": "uint256",
          "name": "upc",
          "type": "uint256"
        }
      ],
      "name": "ShippedToDistributor",
      "type": "event"
    },
    {
      "anonymous": false,
      "inputs": [
        {
          "indexed": false,
          "internalType": "uint256",
          "name": "upc",
          "type": "uint256"
        }
      ],
      "name": "ShippedToRetailer",
      "type": "event"
    },
    {
      "anonymous": false,
      "inputs": [
        {
          "indexed": true,
          "internalType": "address",
          "name": "oldOwner",
          "type": "address"
        },
        {
          "indexed": true,
          "internalType": "address",
          "name": "newOwner",
          "type": "address"
        }
      ],
      "name": "TransferOwnership",
      "type": "event"
    },
    {
      "inputs": [
        {
          "internalType": "address",
          "name": "account",
          "type": "address"
        }
      ],
      "name": "addConsumer",
      "outputs": [],
      "stateMutability": "nonpayable",
      "type": "function"
    },
    {
      "inputs": [
        {
          "internalType": "address",
          "name": "account",
          "type": "address"
        }
      ],
      "name": "addDistributor",
      "outputs": [],
      "stateMutability": "nonpayable",
      "type": "function"
    },
    {
      "inputs": [
        {
          "internalType": "address",
          "name": "account",
          "type": "address"
        }
      ],
      "name": "addFarmer",
      "outputs": [],
      "stateMutability": "nonpayable",
      "type": "function"
    },
    {
      "inputs": [
        {
          "internalType": "address",
          "name": "account",
          "type": "address"
        }
      ],
      "name": "addRetailer",
      "outputs": [],
      "stateMutability": "nonpayable",
      "type": "function"
    },
    {
      "inputs": [
        {
          "internalType": "address",
          "name": "account",
          "type": "address"
        }
      ],
      "name": "isConsumer",
      "outputs": [
        {
          "internalType": "bool",
          "name": "",
          "type": "bool"
        }
      ],
      "stateMutability": "view",
      "type": "function"
    },
    {
      "inputs": [
        {
          "internalType": "address",
          "name": "account",
          "type": "address"
        }
      ],
      "name": "isDistributor",
      "outputs": [
        {
          "internalType": "bool",
          "name": "",
          "type": "bool"
        }
      ],
      "stateMutability": "view",
      "type": "function"
    },
    {
      "inputs": [
        {
          "internalType": "address",
          "name": "account",
          "type": "address"
        }
      ],
      "name": "isFarmer",
      "outputs": [
        {
          "internalType": "bool",
          "name": "",
          "type": "bool"
        }
      ],
      "stateMutability": "view",
      "type": "function"
    },
    {
      "inputs": [],
      "name": "isOwner",
      "outputs": [
        {
          "internalType": "bool",
          "name": "",
          "type": "bool"
        }
      ],
      "stateMutability": "view",
      "type": "function"
    },
    {
      "inputs": [
        {
          "internalType": "address",
          "name": "account",
          "type": "address"
        }
      ],
      "name": "isRetailer",
      "outputs": [
        {
          "internalType": "bool",
          "name": "",
          "type": "bool"
        }
      ],
      "stateMutability": "view",
      "type": "function"
    },
    {
      "inputs": [],
      "name": "owner",
      "outputs": [
        {
          "internalType": "address",
          "name": "",
          "type": "address"
        }
      ],
      "stateMutability": "view",
      "type": "function"
    },
    {
      "inputs": [],
      "name": "renounceConsumer",
      "outputs": [],
      "stateMutability": "nonpayable",
      "type": "function"
    },
    {
      "inputs": [],
      "name": "renounceDistributor",
      "outputs": [],
      "stateMutability": "nonpayable",
      "type": "function"
    },
    {
      "inputs": [],
      "name": "renounceFarmer",
      "outputs": [],
      "stateMutability": "nonpayable",
      "type": "function"
    },
    {
      "inputs": [],
      "name": "renounceOwnership",
      "outputs": [],
      "stateMutability": "nonpayable",
      "type": "function"
    },
    {
      "inputs": [],
      "name": "renounceRetailer",
      "outputs": [],
      "stateMutability": "nonpayable",
      "type": "function"
    },
    {
      "inputs": [
        {
          "internalType": "address",
          "name": "newOwner",
          "type": "address"
        }
      ],
      "name": "transferOwnership",
      "outputs": [],
      "stateMutability": "nonpayable",
      "type": "function"
    },
    {
      "inputs": [],
      "name": "kill",
      "outputs": [],
      "stateMutability": "nonpayable",
      "type": "function"
    },
    {
      "inputs": [
        {
          "internalType": "uint256",
          "name": "_upc",
          "type": "uint256"
        },
        {
          "internalType": "address",
          "name": "_originFarmerID",
          "type": "address"
        },
        {
          "internalType": "string",
          "name": "_originFarmName",
          "type": "string"
        },
        {
          "internalType": "string",
          "name": "_originFarmInformation",
          "type": "string"
        },
        {
          "internalType": "string",
          "name": "_originFarmLatitude",
          "type": "string"
        },
        {
          "internalType": "string",
          "name": "_originFarmLongitude",
          "type": "string"
        }
      ],
      "name": "harvestApples",
      "outputs": [],
      "stateMutability": "nonpayable",
      "type": "function"
    },
    {
      "inputs": [
        {
          "internalType": "uint256",
          "name": "_upc",
          "type": "uint256"
        }
      ],
      "name": "packApples",
      "outputs": [],
      "stateMutability": "nonpayable",
      "type": "function"
    },
    {
      "inputs": [
        {
          "internalType": "uint256",
          "name": "_upc",
          "type": "uint256"
        }
      ],
      "name": "shipApplesToDistributor",
      "outputs": [],
      "stateMutability": "nonpayable",
      "type": "function"
    },
    {
      "inputs": [
        {
          "internalType": "uint256",
          "name": "_upc",
          "type": "uint256"
        }
      ],
      "name": "receiveApplesByDistributor",
      "outputs": [],
      "stateMutability": "nonpayable",
      "type": "function"
    },
    {
      "inputs": [
        {
          "internalType": "uint256",
          "name": "_upc",
          "type": "uint256"
        }
      ],
      "name": "shipApplesToRetailer",
      "outputs": [],
      "stateMutability": "nonpayable",
      "type": "function"
    },
    {
      "inputs": [
        {
          "internalType": "uint256",
          "name": "_upc",
          "type": "uint256"
        }
      ],
      "name": "receiveApplesByRetailer",
      "outputs": [],
      "stateMutability": "nonpayable",
      "type": "function"
    },
    {
      "inputs": [
        {
          "internalType": "uint256",
          "name": "_upc",
          "type": "uint256"
        }
      ],
      "name": "onSaleApples",
      "outputs": [],
      "stateMutability": "nonpayable",
      "type": "function"
    },
    {
      "inputs": [
        {
          "internalType": "uint256",
          "name": "_upc",
          "type": "uint256"
        }
      ],
      "name": "purchaseApples",
      "outputs": [],
      "stateMutability": "nonpayable",
      "type": "function"
    },
    {
      "inputs": [
        {
          "internalType": "uint256",
          "name": "_upc",
          "type": "uint256"
        }
      ],
      "name": "fetchAppleFarmerHistory",
      "outputs": [
        {
          "internalType": "uint256",
          "name": "upc",
          "type": "uint256"
        },
        {
          "internalType": "uint256",
          "name": "batch",
          "type": "uint256"
        },
        {
          "internalType": "address",
          "name": "ownerID",
          "type": "address"
        },
        {
          "internalType": "address",
          "name": "originFarmerID",
          "type": "address"
        },
        {
          "internalType": "string",
          "name": "originFarmName",
          "type": "string"
        },
        {
          "internalType": "string",
          "name": "originFarmInformation",
          "type": "string"
        },
        {
          "internalType": "string",
          "name": "originFarmLatitude",
          "type": "string"
        },
        {
          "internalType": "string",
          "name": "originFarmLongitude",
          "type": "string"
        }
      ],
      "stateMutability": "view",
      "type": "function"
    },
    {
      "inputs": [
        {
          "internalType": "uint256",
          "name": "_upc",
          "type": "uint256"
        }
      ],
      "name": "fetchAppleHistory",
      "outputs": [
        {
          "internalType": "uint256",
          "name": "upc",
          "type": "uint256"
        },
        {
          "internalType": "uint256",
          "name": "batch",
          "type": "uint256"
        },
        {
          "internalType": "address",
          "name": "ownerID",
          "type": "address"
        },
        {
          "internalType": "address",
          "name": "originFarmerID",
          "type": "address"
        },
        {
          "internalType": "address",
          "name": "distributorID",
          "type": "address"
        },
        {
          "internalType": "address",
          "name": "retailerID",
          "type": "address"
        },
        {
          "internalType": "address",
          "name": "consumerID",
          "type": "address"
        },
        {
          "internalType": "string",
          "name": "state",
          "type": "string"
        },
        {
          "internalType": "uint256[]",
          "name": "dates",
          "type": "uint256[]"
        }
      ],
      "stateMutability": "view",
      "type": "function"
    }
  ],
  "bytecode": "0x60806040523480156200001157600080fd5b50336000806101000a81548173ffffffffffffffffffffffffffffffffffffffff021916908373ffffffffffffffffffffffffffffffffffffffff16021790555060008054906101000a900473ffffffffffffffffffffffffffffffffffffffff1673ffffffffffffffffffffffffffffffffffffffff16600073ffffffffffffffffffffffffffffffffffffffff167f5c486528ec3e3f0ea91181cff8116f02bfa350e03b8b6f12e00765adbb5af85c60405160405180910390a3620000de336200011760201b60201c565b620000ef336200017860201b60201c565b6200010033620001d960201b60201c565b62000111336200023a60201b60201c565b620003e4565b620001328160016200029b60201b62001ec31790919060201c565b8073ffffffffffffffffffffffffffffffffffffffff167f2e0ded4123377a3c2bc9a26f1717655a129e2f20752924d42e730ec89c83dbd060405160405180910390a250565b620001938160026200029b60201b62001ec31790919060201c565b8073ffffffffffffffffffffffffffffffffffffffff167fddbf200aa634dc3fb81cfd68583dd1040d1c751d335e1d86b631bde3e977fea860405160405180910390a250565b620001f48160036200029b60201b62001ec31790919060201c565b8073ffffffffffffffffffffffffffffffffffffffff167f71ae26cad02663e3d92efd6ec56031a80d74a20c0ab4183faa8bf262261c9baa60405160405180910390a250565b620002558160046200029b60201b62001ec31790919060201c565b8073ffffffffffffffffffffffffffffffffffffffff167f28b26e7a3d20aedbc5f8f2ebf7da671c0491723a2b78f47a097b0e46dee0714260405160405180910390a250565b600073ffffffffffffffffffffffffffffffffffffffff168173ffffffffffffffffffffffffffffffffffffffff161415620002d657600080fd5b620002e882826200035160201b60201c565b15620002f357600080fd5b60018260000160008373ffffffffffffffffffffffffffffffffffffffff1673ffffffffffffffffffffffffffffffffffffffff16815260200190815260200160002060006101000a81548160ff0219169083151502179055505050565b60008073ffffffffffffffffffffffffffffffffffffffff168273ffffffffffffffffffffffffffffffffffffffff1614156200038d57600080fd5b8260000160008373ffffffffffffffffffffffffffffffffffffffff1673ffffffffffffffffffffffffffffffffffffffff16815260200190815260200160002060009054906101000a900460ff16905092915050565b612b5f80620003f46000396000f3fe608060405234801561001057600080fd5b50600436106101a95760003560e01c80638da5cb5b116100f9578063ca41236111610097578063e42b42f911610071578063e42b42f914610436578063ed69bf8114610452578063f2fde38b1461046e578063fcf262ad1461048a576101a9565b8063ca412361146103f4578063cd8a38b514610410578063db0e6a2f1461042c576101a9565b80638f32d59b116100d35780638f32d59b1461036e578063aa8426641461038c578063b46472b1146103a8578063b9429069146103c4576101a9565b80638da5cb5b146103045780638ec4f505146103225780638f0c86fa1461033e576101a9565b806361e6982d116101665780637250e224116101405780637250e2241461029257806380c3f96d146102ae57806380fc0ce4146102ca578063834ff739146102d4576101a9565b806361e6982d14610274578063644241db1461027e578063715018a614610288576101a9565b8063112940f9146101ae5780631c5cad1b146101ca578063329e9a1e146101e65780633c74baf21461021e57806341c0e1b51461023a5780635da09b8814610244575b600080fd5b6101c860048036038101906101c3919061257e565b6104c1565b005b6101e460048036038101906101df91906125e1565b6104df565b005b61020060048036038101906101fb91906125e1565b61065b565b60405161021599989796959493929190612783565b60405180910390f35b610238600480360381019061023391906125e1565b610cd3565b005b610242610e4f565b005b61025e6004803603810190610259919061257e565b610e80565b60405161026b9190612839565b60405180910390f35b61027c610e9d565b005b610286610ea8565b005b610290610eb3565b005b6102ac60048036038101906102a7919061257e565b610f82565b005b6102c860048036038101906102c3919061257e565b610fa0565b005b6102d2610fbe565b005b6102ee60048036038101906102e9919061257e565b610fc9565b6040516102fb9190612839565b60405180910390f35b61030c610fe6565b6040516103199190612854565b60405180910390f35b61033c6004803603810190610337919061257e565b61100f565b005b6103586004803603810190610353919061257e565b61102d565b6040516103659190612839565b60405180910390f35b61037661104a565b6040516103839190612839565b60405180910390f35b6103a660048036038101906103a191906125e1565b6110a1565b005b6103c260048036038101906103bd91906125e1565b611269565b005b6103de60048036038101906103d9919061257e565b611430565b6040516103eb9190612839565b60405180910390f35b61040e600480360381019061040991906128d4565b61144d565b005b61042a600480360381019061042591906125e1565b61169c565b005b610434611864565b005b610450600480360381019061044b91906125e1565b61186f565b005b61046c600480360381019061046791906125e1565b6119eb565b005b6104886004803603810190610483919061257e565b611b67565b005b6104a4600480360381019061049f91906125e1565b611b84565b6040516104b89897969594939291906129e4565b60405180910390f35b6104ca33610fc9565b6104d357600080fd5b6104dc81611f6f565b50565b80600160078111156104f4576104f3612a7e565b5b60056000838152602001908152602001600020600a0160149054906101000a900460ff16600781111561052a57610529612a7e565b5b1461053457600080fd5b6005600083815260200190815260200160002060030160009054906101000a900473ffffffffffffffffffffffffffffffffffffffff168073ffffffffffffffffffffffffffffffffffffffff163373ffffffffffffffffffffffffffffffffffffffff16146105a357600080fd5b600260056000858152602001908152602001600020600a0160146101000a81548160ff021916908360078111156105dd576105dc612a7e565b5b021790555060056000848152602001908152602001600020600b014290806001815401808255809150506001900390600052602060002001600090919091909150557f12122118852024dfabadcec6acfae6384265b1816d4c8c02b940cc913f8197358360405161064e9190612aad565b60405180910390a1505050565b6000806000806000806000606080600560008b8152602001908152602001600020600001549850600560008b8152602001908152602001600020600101549750600560008b815260200190815260200160002060020160009054906101000a900473ffffffffffffffffffffffffffffffffffffffff169650600560008b815260200190815260200160002060030160009054906101000a900473ffffffffffffffffffffffffffffffffffffffff169550600560008b815260200190815260200160002060080160009054906101000a900473ffffffffffffffffffffffffffffffffffffffff169450600560008b815260200190815260200160002060090160009054906101000a900473ffffffffffffffffffffffffffffffffffffffff169350600560008b8152602001908152602001600020600a0160009054906101000a900473ffffffffffffffffffffffffffffffffffffffff169250600060078111156107cc576107cb612a7e565b5b600560008c8152602001908152602001600020600a0160149054906101000a900460ff16600781111561080257610801612a7e565b5b1415610845576040518060400160405280600981526020017f48617276657374656400000000000000000000000000000000000000000000008152509150610c5f565b6001600781111561085957610858612a7e565b5b600560008c8152602001908152602001600020600a0160149054906101000a900460ff16600781111561088f5761088e612a7e565b5b14156108d2576040518060400160405280600681526020017f5061636b656400000000000000000000000000000000000000000000000000008152509150610c5e565b600260078111156108e6576108e5612a7e565b5b600560008c8152602001908152602001600020600a0160149054906101000a900460ff16600781111561091c5761091b612a7e565b5b141561095f576040518060400160405280601681526020017f5368697070656420546f204469737472696275746f72000000000000000000008152509150610c5d565b6003600781111561097357610972612a7e565b5b600560008c8152602001908152602001600020600a0160149054906101000a900460ff1660078111156109a9576109a8612a7e565b5b14156109ec576040518060400160405280601781526020017f5265636569766564204279204469737472696275746f720000000000000000008152509150610c5c565b60046007811115610a00576109ff612a7e565b5b600560008c8152602001908152602001600020600a0160149054906101000a900460ff166007811115610a3657610a35612a7e565b5b1415610a79576040518060400160405280601381526020017f5368697070656420546f2052657461696c6572000000000000000000000000008152509150610c5b565b60056007811115610a8d57610a8c612a7e565b5b600560008c8152602001908152602001600020600a0160149054906101000a900460ff166007811115610ac357610ac2612a7e565b5b1415610b06576040518060400160405280601481526020017f52656365697665642042792052657461696c65720000000000000000000000008152509150610c5a565b60066007811115610b1a57610b19612a7e565b5b600560008c8152602001908152602001600020600a0160149054906101000a900460ff166007811115610b5057610b4f612a7e565b5b1415610b93576040518060400160405280600781526020017f4f6e2053616c65000000000000000000000000000000000000000000000000008152509150610c59565b600780811115610ba657610ba5612a7e565b5b600560008c8152602001908152602001600020600a0160149054906101000a900460ff166007811115610bdc57610bdb612a7e565b5b1415610c1f576040518060400160405280600981526020017f50757263686173656400000000000000000000000000000000000000000000008152509150610c58565b6040518060400160405280600781526020017f556e6b6e6f776e0000000000000000000000000000000000000000000000000081525091505b5b5b5b5b5b5b5b600560008b8152602001908152602001600020600b01805480602002602001604051908101604052809291908181526020018280548015610cbf57602002820191906000526020600020905b815481526020019060010190808311610cab575b505050505090509193959799909294969850565b8060036007811115610ce857610ce7612a7e565b5b60056000838152602001908152602001600020600a0160149054906101000a900460ff166007811115610d1e57610d1d612a7e565b5b14610d2857600080fd5b6005600083815260200190815260200160002060080160009054906101000a900473ffffffffffffffffffffffffffffffffffffffff168073ffffffffffffffffffffffffffffffffffffffff163373ffffffffffffffffffffffffffffffffffffffff1614610d9757600080fd5b600460056000858152602001908152602001600020600a0160146101000a81548160ff02191690836007811115610dd157610dd0612a7e565b5b021790555060056000848152602001908152602001600020600b014290806001815401808255809150506001900390600052602060002001600090919091909150557fdcc15ca27987f4c03e1b3c669ed6df7638e823e8fc63f681529e35e0da23bd7f83604051610e429190612aad565b60405180910390a1505050565b610e5761104a565b610e6057600080fd5b610e68610fe6565b73ffffffffffffffffffffffffffffffffffffffff16ff5b6000610e96826003611fc990919063ffffffff16565b9050919050565b610ea63361205b565b565b610eb1336120b5565b565b610ebb61104a565b610ec457600080fd5b600073ffffffffffffffffffffffffffffffffffffffff1660008054906101000a900473ffffffffffffffffffffffffffffffffffffffff1673ffffffffffffffffffffffffffffffffffffffff167f5c486528ec3e3f0ea91181cff8116f02bfa350e03b8b6f12e00765adbb5af85c60405160405180910390a360008060006101000a81548173ffffffffffffffffffffffffffffffffffffffff021916908373ffffffffffffffffffffffffffffffffffffffff160217905550565b610f8b3361102d565b610f9457600080fd5b610f9d8161210f565b50565b610fa933611430565b610fb257600080fd5b610fbb81612169565b50565b610fc7336121c3565b565b6000610fdf826004611fc990919063ffffffff16565b9050919050565b60008060009054906101000a900473ffffffffffffffffffffffffffffffffffffffff16905090565b61101833610e80565b61102157600080fd5b61102a8161221d565b50565b6000611043826002611fc990919063ffffffff16565b9050919050565b60008060009054906101000a900473ffffffffffffffffffffffffffffffffffffffff1673ffffffffffffffffffffffffffffffffffffffff163373ffffffffffffffffffffffffffffffffffffffff1614905090565b80600260078111156110b6576110b5612a7e565b5b60056000838152602001908152602001600020600a0160149054906101000a900460ff1660078111156110ec576110eb612a7e565b5b146110f657600080fd5b6110ff3361102d565b61110857600080fd5b336005600084815260200190815260200160002060020160006101000a81548173ffffffffffffffffffffffffffffffffffffffff021916908373ffffffffffffffffffffffffffffffffffffffff160217905550336005600084815260200190815260200160002060080160006101000a81548173ffffffffffffffffffffffffffffffffffffffff021916908373ffffffffffffffffffffffffffffffffffffffff160217905550600360056000848152602001908152602001600020600a0160146101000a81548160ff021916908360078111156111ec576111eb612a7e565b5b021790555060056000838152602001908152602001600020600b014290806001815401808255809150506001900390600052602060002001600090919091909150557fc8ca2150e6e1849a10ef5aa4932060fa353bcacdffeb150c9e1890c6ab9403cc8260405161125d9190612aad565b60405180910390a15050565b806004600781111561127e5761127d612a7e565b5b60056000838152602001908152602001600020600a0160149054906101000a900460ff1660078111156112b4576112b3612a7e565b5b146112be57600080fd5b6112c733610e80565b6112d057600080fd5b336005600084815260200190815260200160002060020160006101000a81548173ffffffffffffffffffffffffffffffffffffffff021916908373ffffffffffffffffffffffffffffffffffffffff160217905550336005600084815260200190815260200160002060090160006101000a81548173ffffffffffffffffffffffffffffffffffffffff021916908373ffffffffffffffffffffffffffffffffffffffff1602179055506005806000848152602001908152602001600020600a0160146101000a81548160ff021916908360078111156113b3576113b2612a7e565b5b021790555060056000838152602001908152602001600020600b014290806001815401808255809150506001900390600052602060002001600090919091909150557f322f34e90f2269750b3e28178631d975cc678db36f21098fe548b7f755ce0bd0826040516114249190612aad565b60405180910390a15050565b6000611446826001611fc990919063ffffffff16565b9050919050565b61145633611430565b61145f57600080fd5b60004290508a600560008d81526020019081526020016000206000018190555080600560008d81526020019081526020016000206001018190555033600560008d815260200190815260200160002060020160006101000a81548173ffffffffffffffffffffffffffffffffffffffff021916908373ffffffffffffffffffffffffffffffffffffffff16021790555089600560008d815260200190815260200160002060030160006101000a81548173ffffffffffffffffffffffffffffffffffffffff021916908373ffffffffffffffffffffffffffffffffffffffff1602179055508888600560008e81526020019081526020016000206004019190611569929190612473565b508686600560008e8152602001908152602001600020600501919061158f929190612473565b508484600560008e815260200190815260200160002060060191906115b5929190612473565b508282600560008e815260200190815260200160002060070191906115db929190612473565b506000600560008d8152602001908152602001600020600a0160146101000a81548160ff0219169083600781111561161657611615612a7e565b5b0217905550600560008c8152602001908152602001600020600b018190806001815401808255809150506001900390600052602060002001600090919091909150557f8e55ccfc9778ff8eba1646d765cf1982537ce0f9257054a17b48aad7452501838b6040516116879190612aad565b60405180910390a15050505050505050505050565b80600660078111156116b1576116b0612a7e565b5b60056000838152602001908152602001600020600a0160149054906101000a900460ff1660078111156116e7576116e6612a7e565b5b146116f157600080fd5b6116fa33610fc9565b61170357600080fd5b336005600084815260200190815260200160002060020160006101000a81548173ffffffffffffffffffffffffffffffffffffffff021916908373ffffffffffffffffffffffffffffffffffffffff1602179055503360056000848152602001908152602001600020600a0160006101000a81548173ffffffffffffffffffffffffffffffffffffffff021916908373ffffffffffffffffffffffffffffffffffffffff160217905550600760056000848152602001908152602001600020600a0160146101000a81548160ff021916908360078111156117e7576117e6612a7e565b5b021790555060056000838152602001908152602001600020600b014290806001815401808255809150506001900390600052602060002001600090919091909150557f653d56639fee6b566a5c804764e9689de38645f0b733df89a36a1b7b42173dd8826040516118589190612aad565b60405180910390a15050565b61186d33612277565b565b806005600781111561188457611883612a7e565b5b60056000838152602001908152602001600020600a0160149054906101000a900460ff1660078111156118ba576118b9612a7e565b5b146118c457600080fd5b6005600083815260200190815260200160002060090160009054906101000a900473ffffffffffffffffffffffffffffffffffffffff168073ffffffffffffffffffffffffffffffffffffffff163373ffffffffffffffffffffffffffffffffffffffff161461193357600080fd5b600660056000858152602001908152602001600020600a0160146101000a81548160ff0219169083600781111561196d5761196c612a7e565b5b021790555060056000848152602001908152602001600020600b014290806001815401808255809150506001900390600052602060002001600090919091909150557f6826140490b8e3cb7f1acaadc491af2c8803ed6a350ed83565db9fe625e1afe7836040516119de9190612aad565b60405180910390a1505050565b8060006007811115611a00576119ff612a7e565b5b60056000838152602001908152602001600020600a0160149054906101000a900460ff166007811115611a3657611a35612a7e565b5b14611a4057600080fd5b6005600083815260200190815260200160002060030160009054906101000a900473ffffffffffffffffffffffffffffffffffffffff168073ffffffffffffffffffffffffffffffffffffffff163373ffffffffffffffffffffffffffffffffffffffff1614611aaf57600080fd5b600160056000858152602001908152602001600020600a0160146101000a81548160ff02191690836007811115611ae957611ae8612a7e565b5b021790555060056000848152602001908152602001600020600b014290806001815401808255809150506001900390600052602060002001600090919091909150557f9b3b66e2380b690bae22c73ef1428fb0c91e72fe14a4b6defa13035214187aff83604051611b5a9190612aad565b60405180910390a1505050565b611b6f61104a565b611b7857600080fd5b611b81816122d1565b50565b600080600080606080606080600560008a8152602001908152602001600020600001549750600560008a8152602001908152602001600020600101549650600560008a815260200190815260200160002060020160009054906101000a900473ffffffffffffffffffffffffffffffffffffffff169550600560008a815260200190815260200160002060030160009054906101000a900473ffffffffffffffffffffffffffffffffffffffff169450600560008a81526020019081526020016000206004018054611c5590612af7565b80601f0160208091040260200160405190810160405280929190818152602001828054611c8190612af7565b8015611cce5780601f10611ca357610100808354040283529160200191611cce565b820191906000526020600020905b815481529060010190602001808311611cb157829003601f168201915b50505050509350600560008a81526020019081526020016000206005018054611cf690612af7565b80601f0160208091040260200160405190810160405280929190818152602001828054611d2290612af7565b8015611d6f5780601f10611d4457610100808354040283529160200191611d6f565b820191906000526020600020905b815481529060010190602001808311611d5257829003601f168201915b50505050509250600560008a81526020019081526020016000206006018054611d9790612af7565b80601f0160208091040260200160405190810160405280929190818152602001828054611dc390612af7565b8015611e105780601f10611de557610100808354040283529160200191611e10565b820191906000526020600020905b815481529060010190602001808311611df357829003601f168201915b50505050509150600560008a81526020019081526020016000206007018054611e3890612af7565b80601f0160208091040260200160405190810160405280929190818152602001828054611e6490612af7565b8015611eb15780601f10611e8657610100808354040283529160200191611eb1565b820191906000526020600020905b815481529060010190602001808311611e9457829003601f168201915b50505050509050919395975091939597565b600073ffffffffffffffffffffffffffffffffffffffff168173ffffffffffffffffffffffffffffffffffffffff161415611efd57600080fd5b611f078282611fc9565b15611f1157600080fd5b60018260000160008373ffffffffffffffffffffffffffffffffffffffff1673ffffffffffffffffffffffffffffffffffffffff16815260200190815260200160002060006101000a81548160ff0219169083151502179055505050565b611f83816004611ec390919063ffffffff16565b8073ffffffffffffffffffffffffffffffffffffffff167f28b26e7a3d20aedbc5f8f2ebf7da671c0491723a2b78f47a097b0e46dee0714260405160405180910390a250565b60008073ffffffffffffffffffffffffffffffffffffffff168273ffffffffffffffffffffffffffffffffffffffff16141561200457600080fd5b8260000160008373ffffffffffffffffffffffffffffffffffffffff1673ffffffffffffffffffffffffffffffffffffffff16815260200190815260200160002060009054906101000a900460ff16905092915050565b61206f8160046123c890919063ffffffff16565b8073ffffffffffffffffffffffffffffffffffffffff167fe3f5ed5f263f1f01764a96edfc7d025f511ec5f7d180e8816908b78bcf74f09860405160405180910390a250565b6120c98160026123c890919063ffffffff16565b8073ffffffffffffffffffffffffffffffffffffffff167f126174f6cf49c81cdb4a9214c6b8f037bef55b4ec31e4fc776cea2a1c8a88d5960405160405180910390a250565b612123816002611ec390919063ffffffff16565b8073ffffffffffffffffffffffffffffffffffffffff167fddbf200aa634dc3fb81cfd68583dd1040d1c751d335e1d86b631bde3e977fea860405160405180910390a250565b61217d816001611ec390919063ffffffff16565b8073ffffffffffffffffffffffffffffffffffffffff167f2e0ded4123377a3c2bc9a26f1717655a129e2f20752924d42e730ec89c83dbd060405160405180910390a250565b6121d78160016123c890919063ffffffff16565b8073ffffffffffffffffffffffffffffffffffffffff167fa5e0f060af304ab17dd418c7927e3da3ae7868189bf387aee09ab179ccc572f260405160405180910390a250565b612231816003611ec390919063ffffffff16565b8073ffffffffffffffffffffffffffffffffffffffff167f71ae26cad02663e3d92efd6ec56031a80d74a20c0ab4183faa8bf262261c9baa60405160405180910390a250565b61228b8160036123c890919063ffffffff16565b8073ffffffffffffffffffffffffffffffffffffffff167fdb7176e79cffef81cb01767dd0447a0b24bb72ca9778d4b245581086b2a7e6db60405160405180910390a250565b600073ffffffffffffffffffffffffffffffffffffffff168173ffffffffffffffffffffffffffffffffffffffff16141561230b57600080fd5b8073ffffffffffffffffffffffffffffffffffffffff1660008054906101000a900473ffffffffffffffffffffffffffffffffffffffff1673ffffffffffffffffffffffffffffffffffffffff167f5c486528ec3e3f0ea91181cff8116f02bfa350e03b8b6f12e00765adbb5af85c60405160405180910390a3806000806101000a81548173ffffffffffffffffffffffffffffffffffffffff021916908373ffffffffffffffffffffffffffffffffffffffff16021790555050565b600073ffffffffffffffffffffffffffffffffffffffff168173ffffffffffffffffffffffffffffffffffffffff16141561240257600080fd5b61240c8282611fc9565b61241557600080fd5b60008260000160008373ffffffffffffffffffffffffffffffffffffffff1673ffffffffffffffffffffffffffffffffffffffff16815260200190815260200160002060006101000a81548160ff0219169083151502179055505050565b82805461247f90612af7565b90600052602060002090601f0160209004810192826124a157600085556124e8565b82601f106124ba57803560ff19168380011785556124e8565b828001600101855582156124e8579182015b828111156124e75782358255916020019190600101906124cc565b5b5090506124f591906124f9565b5090565b5b808211156125125760008160009055506001016124fa565b5090565b600080fd5b600080fd5b600073ffffffffffffffffffffffffffffffffffffffff82169050919050565b600061254b82612520565b9050919050565b61255b81612540565b811461256657600080fd5b50565b60008135905061257881612552565b92915050565b60006020828403121561259457612593612516565b5b60006125a284828501612569565b91505092915050565b6000819050919050565b6125be816125ab565b81146125c957600080fd5b50565b6000813590506125db816125b5565b92915050565b6000602082840312156125f7576125f6612516565b5b6000612605848285016125cc565b91505092915050565b612617816125ab565b82525050565b61262681612540565b82525050565b600081519050919050565b600082825260208201905092915050565b60005b8381101561266657808201518184015260208101905061264b565b83811115612675576000848401525b50505050565b6000601f19601f8301169050919050565b60006126978261262c565b6126a18185612637565b93506126b1818560208601612648565b6126ba8161267b565b840191505092915050565b600081519050919050565b600082825260208201905092915050565b6000819050602082019050919050565b6126fa816125ab565b82525050565b600061270c83836126f1565b60208301905092915050565b6000602082019050919050565b6000612730826126c5565b61273a81856126d0565b9350612745836126e1565b8060005b8381101561277657815161275d8882612700565b975061276883612718565b925050600181019050612749565b5085935050505092915050565b600061012082019050612799600083018c61260e565b6127a6602083018b61260e565b6127b3604083018a61261d565b6127c0606083018961261d565b6127cd608083018861261d565b6127da60a083018761261d565b6127e760c083018661261d565b81810360e08301526127f9818561268c565b905081810361010083015261280e8184612725565b90509a9950505050505050505050565b60008115159050919050565b6128338161281e565b82525050565b600060208201905061284e600083018461282a565b92915050565b6000602082019050612869600083018461261d565b92915050565b600080fd5b600080fd5b600080fd5b60008083601f8401126128945761289361286f565b5b8235905067ffffffffffffffff8111156128b1576128b0612874565b5b6020830191508360018202830111156128cd576128cc612879565b5b9250929050565b60008060008060008060008060008060c08b8d0312156128f7576128f6612516565b5b60006129058d828e016125cc565b9a505060206129168d828e01612569565b99505060408b013567ffffffffffffffff8111156129375761293661251b565b5b6129438d828e0161287e565b985098505060608b013567ffffffffffffffff8111156129665761296561251b565b5b6129728d828e0161287e565b965096505060808b013567ffffffffffffffff8111156129955761299461251b565b5b6129a18d828e0161287e565b945094505060a08b013567ffffffffffffffff8111156129c4576129c361251b565b5b6129d08d828e0161287e565b92509250509295989b9194979a5092959850565b6000610100820190506129fa600083018b61260e565b612a07602083018a61260e565b612a14604083018961261d565b612a21606083018861261d565b8181036080830152612a33818761268c565b905081810360a0830152612a47818661268c565b905081810360c0830152612a5b818561268c565b905081810360e0830152612a6f818461268c565b90509998505050505050505050565b7f4e487b7100000000000000000000000000000000000000000000000000000000600052602160045260246000fd5b6000602082019050612ac2600083018461260e565b92915050565b7f4e487b7100000000000000000000000000000000000000000000000000000000600052602260045260246000fd5b60006002820490506001821680612b0f57607f821691505b60208210811415612b2357612b22612ac8565b5b5091905056fea264697066735822122061889c5ef7ebab348223375b2914a084603b7dd89555095f92208c1dcb2aacde64736f6c634300080b0033",
  "immutableReferences": {},
  "source": "// SPDX-License-Identifier: MIT\npragma solidity >=0.4.24;\n\nimport \"../applesCore/Ownable.sol\";\nimport \"../applesAccessControl/FarmerRole.sol\";\nimport \"../applesAccessControl/DistributorRole.sol\";\nimport \"../applesAccessControl/RetailerRole.sol\";\nimport \"../applesAccessControl/ConsumerRole.sol\";\n\n// Define a contract 'Supplychain'\ncontract SupplyChain is Ownable, FarmerRole, DistributorRole, RetailerRole, ConsumerRole {\n\n  // Define a public mapping 'apples' that maps the UPC to an apple.\n  mapping (uint => Apple) apples;\n\n  // Define enum 'State' with the following values:\n  enum State \n  { \n    Harvested,            // 0\n    Packed,               // 1\n    ShippedToDistributor, // 2\n    ReceivedByDistributor,// 3\n    ShippedToRetailer,    // 4\n    ReceivedByRetailer,   // 5\n    OnSale,               // 6\n    Purchased             // 7\n  }\n\n  // Define a struct 'Apple' with the following fields:\n  struct Apple {\n    uint    upc;      // Universal Product Code (UPC), generated by the Farmer, goes on the package, can be verified by the Consumer\n    uint    batch;    // Batch number of the apples\n    address ownerID;  // Metamask-Ethereum address of the current owner as the product moves through the 8 stages\n    address originFarmerID; // Metamask-Ethereum address of the Farmer\n    string  originFarmName; // Farmer Name\n    string  originFarmInformation;  // Farmer Information\n    string  originFarmLatitude; // Farm Latitude\n    string  originFarmLongitude;  // Farm Longitude\n    address distributorID;  // Metamask-Ethereum address of the Distributor\n    address retailerID; // Metamask-Ethereum address of the Retailer\n    address consumerID; // Metamask-Ethereum address of the Consumer\n    State   state;  // State of the apple as represented in the enum above\n    uint[] dates; // Date of the state change\n  }\n\n  // Define 8 events with the same 8 state values and accept 'upc' as input argument\n  event Harvested(uint upc);\n  event Packed(uint upc);\n  event ShippedToDistributor(uint upc);\n  event ReceivedByDistributor(uint upc);\n  event ShippedToRetailer(uint upc);\n  event ReceivedByRetailer(uint upc);\n  event OnSale(uint upc);\n  event Purchased(uint upc);\n\n  // Define a modifer that verifies the Caller\n  modifier verifyCaller (address _address) {\n    require(msg.sender == _address); \n    _;\n  }\n\n  // Define a modifier that checks if an apple.state of a upc is Harvested\n  modifier isHarvested(uint _upc) {\n    require(apples[_upc].state == State.Harvested);\n    _;\n  }\n\n  // Define a modifier that checks if an apple.state of a upc is Packed\n  modifier isPacked(uint _upc) {\n    require(apples[_upc].state == State.Packed);\n    _;\n  }\n\n  // Define a modifier that checks if an apple.state of a upc is ShippedToDistributor\n  modifier isShippedToDistributor(uint _upc) {\n    require(apples[_upc].state == State.ShippedToDistributor);\n    _;\n  }\n  \n  // Define a modifier that checks if an apple.state of a upc is ReceivedByDistributor\n  modifier isReceivedByDistributor(uint _upc) {\n    require(apples[_upc].state == State.ReceivedByDistributor);\n    _;\n  }\n\n  // Define a modifier that checks if an apple.state of a upc is ShippedToRetailer\n  modifier isShippedToRetailer(uint _upc) {\n    require(apples[_upc].state == State.ShippedToRetailer);\n    _;\n  }\n\n  // Define a modifier that checks if an apple.state of a upc is ReceivedByRetailer\n  modifier isReceivedByRetailer(uint _upc) {\n    require(apples[_upc].state == State.ReceivedByRetailer);\n    _;\n  }\n\n  // Define a modifier that checks if an apple.state of a upc is OnSale\n  modifier isOnSale(uint _upc) {\n    require(apples[_upc].state == State.OnSale);\n    _;\n  }\n  \n  // Define a modifier that checks if an apple.state of a upc is Purchased\n  modifier isPurchased(uint _upc) {\n    require(apples[_upc].state == State.Purchased);\n    _;\n  }\n\n  // Define a function 'kill' if required\n  function kill() public onlyOwner {\n      selfdestruct(payable(owner()));\n  }\n\n  // Define a function 'harvestApples' that allows a farmer to mark the apples as 'Harvested'\n  function harvestApples(\n    uint _upc, \n    address _originFarmerID,\n    string calldata _originFarmName, \n    string calldata _originFarmInformation, \n    string calldata _originFarmLatitude, \n    string calldata _originFarmLongitude) public onlyFarmer\n  {\n    uint timeStamp = block.timestamp;\n\n    // Add the new apples as part of Harvest\n    apples[_upc].upc = _upc;\n    apples[_upc].batch = timeStamp;\n    apples[_upc].ownerID = msg.sender;\n    apples[_upc].originFarmerID = _originFarmerID;\n    apples[_upc].originFarmName = _originFarmName;\n    apples[_upc].originFarmInformation = _originFarmInformation;\n    apples[_upc].originFarmLatitude = _originFarmLatitude;\n    apples[_upc].originFarmLongitude = _originFarmLongitude;\n\n    // Update the apples state\n    apples[_upc].state = State.Harvested;\n\n    // Update the date of the state changes\n    apples[_upc].dates.push(timeStamp);\n\n    // Emit the Harvested event\n    emit Harvested(_upc);\n  }\n\n  // Define a function 'packApples' that allows a farmer to mark an item 'Packed'\n  function packApples(uint _upc) public \n  // Call modifier to check if upc has passed previous supply chain stage\n  isHarvested(_upc) \n  // Call modifier to verify caller of this function\n  verifyCaller(apples[_upc].originFarmerID)\n  {\n    // Update the apples state\n    apples[_upc].state = State.Packed;\n\n    // Update the date of the state changes\n    apples[_upc].dates.push(block.timestamp);\n\n    // Emit the appropriate event\n    emit Packed(_upc);\n  }\n\n  // Define a function 'shipApplesToDistributor' that allows the farmer to mark apples 'ShippedToDistributor'\n  // Use the above modifers to check if the item is Packed\n  function shipApplesToDistributor(uint _upc) public \n    // Call modifier to check if upc has passed previous supply chain stage\n    isPacked(_upc)\n    // Call modifier to verify caller of this function\n    verifyCaller(apples[_upc].originFarmerID)\n  {\n    // Update the apples state\n    apples[_upc].state = State.ShippedToDistributor;\n\n    // Update the date of the state changes\n    apples[_upc].dates.push(block.timestamp);\n    \n    // Emit the appropriate event\n    emit ShippedToDistributor(_upc);\n  }\n\n  // Define a function 'receivedApplesByDistributor' that allows the Distributor to mark an item 'ReceivedByDistributor'\n  // Use the above modifiers to check if the item is shippedToDistributor\n  function receiveApplesByDistributor(uint _upc) public \n    // Call modifier to check if upc has passed previous supply chain stage\n    isShippedToDistributor(_upc)\n    // Access Control List enforced by calling Smart Contract / DApp\n    onlyDistributor()\n  {\n    // Update the appropriate fields - ownerID, distributorID, apple state\n    apples[_upc].ownerID = msg.sender;\n    apples[_upc].distributorID = msg.sender;\n    apples[_upc].state = State.ReceivedByDistributor;\n\n    // Update the date of the state changes\n    apples[_upc].dates.push(block.timestamp);\n\n    // Emit the appropriate event\n    emit ReceivedByDistributor(_upc);\n  }\n\n  // Define a function 'shipApplesToRetailer' that allows the distributor to mark an item 'ShippedToRetailer'\n  // Use the above modifers to check if the item is sold\n  function shipApplesToRetailer(uint _upc) public \n    // Call modifier to check if upc has passed previous supply chain stage\n    isReceivedByDistributor(_upc)\n    // Call modifier to verify caller of this function\n    verifyCaller(apples[_upc].distributorID)\n  {\n    // Update the apples state\n    apples[_upc].state = State.ShippedToRetailer;\n\n    // Update the date of the state changes\n    apples[_upc].dates.push(block.timestamp);\n    \n    // Emit the appropriate event\n    emit ShippedToRetailer(_upc);\n  }\n\n  // Define a function 'receiveApplesByRetailer' that allows the retailer to mark an item 'ReceivedByRetailer'\n  // Use the above modifiers to check if the item is shipped\n  function receiveApplesByRetailer(uint _upc) public \n    // Call modifier to check if upc has passed previous supply chain stage\n    isShippedToRetailer(_upc)\n    // Access Control List enforced by calling Smart Contract / DApp\n    onlyRetailer()\n  {\n    // Update the appropriate fields - ownerID, retailerID, apple state\n    apples[_upc].ownerID = msg.sender;\n    apples[_upc].retailerID = msg.sender;\n    apples[_upc].state = State.ReceivedByRetailer;\n\n    // Update the date of the state changes\n    apples[_upc].dates.push(block.timestamp);\n\n    // Emit the appropriate event\n    emit ReceivedByRetailer(_upc);\n  }\n\n  // Define a function 'onSaleApples' that allows a Retailer to mark an item 'OnSale'\n  function onSaleApples(uint _upc) public \n  // Call modifier to check if upc has passed previous supply chain stage\n  isReceivedByRetailer(_upc)\n  // Call modifier to verify caller of this function\n  verifyCaller(apples[_upc].retailerID)\n  {\n    // Update the apples state\n    apples[_upc].state = State.OnSale;\n\n    // Update the date of the state changes\n    apples[_upc].dates.push(block.timestamp);\n\n    // Emit the appropriate event\n    emit OnSale(_upc);\n  }\n\n  // Define a function 'purchaseApples' that allows the consumer to mark an item 'Purchased'\n  // Use the above modifiers to check if the item is received\n  function purchaseApples(uint _upc) public \n    // Call modifier to check if upc has passed previous supply chain stage\n    isOnSale(_upc)\n    // Access Control List enforced by calling Smart Contract / DApp\n    onlyConsumer()\n  {\n    // Update the appropriate fields - ownerID, consumerID, apple state\n    apples[_upc].ownerID = msg.sender;\n    apples[_upc].consumerID = msg.sender;\n    apples[_upc].state = State.Purchased;\n\n    // Update the date of the state changes\n    apples[_upc].dates.push(block.timestamp);\n\n    // Emit the appropriate event\n    emit Purchased(_upc);\n  }\n\n  // Define a function 'fetchAppleFarmerHistory' that fetches the farmer's data of the apple\n  function fetchAppleFarmerHistory(uint _upc) public view returns \n  (\n    uint    upc,\n    uint    batch,\n    address ownerID,\n    address originFarmerID,\n    string  memory originFarmName,\n    string  memory originFarmInformation,\n    string  memory originFarmLatitude,\n    string  memory originFarmLongitude\n  ) \n  {\n    // Assign values to the parameters\n    upc = apples[_upc].upc;\n    batch = apples[_upc].batch;\n    ownerID = apples[_upc].ownerID;\n    originFarmerID = apples[_upc].originFarmerID;\n    originFarmName = apples[_upc].originFarmName;\n    originFarmInformation = apples[_upc].originFarmInformation;\n    originFarmLatitude = apples[_upc].originFarmLatitude;\n    originFarmLongitude = apples[_upc].originFarmLongitude;\n    \n    return \n    (\n      upc,\n      batch,\n      ownerID,\n      originFarmerID,\n      originFarmName,\n      originFarmInformation,\n      originFarmLatitude,\n      originFarmLongitude\n    );\n  }\n\n  // Define a function 'fetchAppleHistory' that fetches the data of the apple\n  function fetchAppleHistory(uint _upc) public view returns \n  (\n    uint    upc,\n    uint    batch,\n    address ownerID,\n    address originFarmerID,\n    address distributorID,\n    address retailerID,\n    address consumerID,\n    string memory state,\n    uint[] memory dates\n  ) \n  {\n    // Assign values to the parameters\n    upc = apples[_upc].upc;\n    batch = apples[_upc].batch;\n    ownerID = apples[_upc].ownerID;\n    originFarmerID = apples[_upc].originFarmerID;\n    distributorID = apples[_upc].distributorID;\n    retailerID = apples[_upc].retailerID;\n    consumerID = apples[_upc].consumerID;\n\n    // Assign the state to the parameter\n    if(apples[_upc].state == State.Harvested)\n      state = \"Harvested\";\n    else if(apples[_upc].state == State.Packed)\n      state = \"Packed\";\n    else if(apples[_upc].state == State.ShippedToDistributor)\n      state = \"Shipped To Distributor\";\n    else if(apples[_upc].state == State.ReceivedByDistributor)\n      state = \"Received By Distributor\";\n    else if(apples[_upc].state == State.ShippedToRetailer)\n      state = \"Shipped To Retailer\";      \n    else if(apples[_upc].state == State.ReceivedByRetailer)\n      state = \"Received By Retailer\";      \n    else if(apples[_upc].state == State.OnSale)\n      state = \"On Sale\";\n    else if(apples[_upc].state == State.Purchased)\n      state = \"Purchased\";\n    else\n      state = \"Unknown\";\n\n    dates = apples[_upc].dates;\n\n    return \n    (\n      upc,\n      batch,\n      ownerID,\n      originFarmerID,\n      distributorID,\n      retailerID,\n      consumerID,\n      state,\n      dates\n    );\n  }\n}\n",
  "sourcePath": "C:\\udacity\\Blockchain\\Projects\\Project 3 - Ethereum Dapp for Tracking Items through Supply Chain\\contracts\\applesBase\\SupplyChain.sol",
  "compiler": {
    "name": "solc",
    "version": "0.8.11+commit.d7f03943.Emscripten.clang"
  },
  "schemaVersion": "3.4.4",
  "updatedAt": "2022-02-08T06:10:34.930Z",
  "devdoc": {
    "kind": "dev",
    "methods": {},
    "version": 1
  },
  "userdoc": {
    "kind": "user",
    "methods": {
      "isOwner()": {
        "notice": "Check if the calling address is the owner of the contract"
      },
      "owner()": {
        "notice": "Look up the address of the owner"
      },
      "renounceOwnership()": {
        "notice": "Define a function to renounce ownerhip"
      },
      "transferOwnership(address)": {
        "notice": "Define a public function to transfer ownership"
      }
    },
    "version": 1
  }
}